{
  "_format": "hh-sol-artifact-1",
  "contractName": "MusicFactory",
  "sourceName": "contracts/MusicFactory.sol",
  "abi": [
    {
      "inputs": [
        {
          "internalType": "address[]",
          "name": "payees_",
          "type": "address[]"
        },
        {
          "internalType": "uint256[]",
          "name": "shares_",
          "type": "uint256[]"
        },
        {
          "internalType": "uint256",
          "name": "salePrice_",
          "type": "uint256"
        },
        {
          "internalType": "string",
          "name": "name_",
          "type": "string"
        },
        {
          "internalType": "string",
          "name": "symbol_",
          "type": "string"
        },
        {
          "internalType": "uint256",
          "name": "maxSupply_",
          "type": "uint256"
        },
        {
          "internalType": "uint256",
          "name": "royaltiesPercentage_",
          "type": "uint256"
        },
        {
          "internalType": "string",
          "name": "metadataURI_",
          "type": "string"
        }
      ],
      "stateMutability": "nonpayable",
      "type": "constructor"
    },
    {
      "anonymous": false,
      "inputs": [
        {
          "indexed": true,
          "internalType": "address",
          "name": "owner",
          "type": "address"
        },
        {
          "indexed": true,
          "internalType": "address",
          "name": "approved",
          "type": "address"
        },
        {
          "indexed": true,
          "internalType": "uint256",
          "name": "tokenId",
          "type": "uint256"
        }
      ],
      "name": "Approval",
      "type": "event"
    },
    {
      "anonymous": false,
      "inputs": [
        {
          "indexed": true,
          "internalType": "address",
          "name": "owner",
          "type": "address"
        },
        {
          "indexed": true,
          "internalType": "address",
          "name": "operator",
          "type": "address"
        },
        {
          "indexed": false,
          "internalType": "bool",
          "name": "approved",
          "type": "bool"
        }
      ],
      "name": "ApprovalForAll",
      "type": "event"
    },
    {
      "anonymous": false,
      "inputs": [
        {
          "indexed": true,
          "internalType": "contract IERC20",
          "name": "token",
          "type": "address"
        },
        {
          "indexed": false,
          "internalType": "address",
          "name": "to",
          "type": "address"
        },
        {
          "indexed": false,
          "internalType": "uint256",
          "name": "amount",
          "type": "uint256"
        }
      ],
      "name": "ERC20PaymentReleased",
      "type": "event"
    },
    {
      "anonymous": false,
      "inputs": [
        {
          "indexed": true,
          "internalType": "address",
          "name": "previousOwner",
          "type": "address"
        },
        {
          "indexed": true,
          "internalType": "address",
          "name": "newOwner",
          "type": "address"
        }
      ],
      "name": "OwnershipTransferred",
      "type": "event"
    },
    {
      "anonymous": false,
      "inputs": [
        {
          "indexed": false,
          "internalType": "bool",
          "name": "isPaused",
          "type": "bool"
        }
      ],
      "name": "PausedStateSet",
      "type": "event"
    },
    {
      "anonymous": false,
      "inputs": [
        {
          "indexed": false,
          "internalType": "address",
          "name": "account",
          "type": "address"
        },
        {
          "indexed": false,
          "internalType": "uint256",
          "name": "shares",
          "type": "uint256"
        }
      ],
      "name": "PayeeAdded",
      "type": "event"
    },
    {
      "anonymous": false,
      "inputs": [
        {
          "indexed": false,
          "internalType": "address",
          "name": "from",
          "type": "address"
        },
        {
          "indexed": false,
          "internalType": "uint256",
          "name": "amount",
          "type": "uint256"
        }
      ],
      "name": "PaymentReceived",
      "type": "event"
    },
    {
      "anonymous": false,
      "inputs": [
        {
          "indexed": false,
          "internalType": "address",
          "name": "to",
          "type": "address"
        },
        {
          "indexed": false,
          "internalType": "uint256",
          "name": "amount",
          "type": "uint256"
        }
      ],
      "name": "PaymentReleased",
      "type": "event"
    },
    {
      "anonymous": false,
      "inputs": [
        {
          "indexed": true,
          "internalType": "address",
          "name": "creator",
          "type": "address"
        },
        {
          "indexed": true,
          "internalType": "uint256",
          "name": "royaltiesPercentage",
          "type": "uint256"
        },
        {
          "indexed": false,
          "internalType": "uint256",
          "name": "salePrice",
          "type": "uint256"
        },
        {
          "indexed": false,
          "internalType": "string",
          "name": "metadataURI_",
          "type": "string"
        },
        {
          "indexed": false,
          "internalType": "uint256",
          "name": "maxSupply",
          "type": "uint256"
        },
        {
          "indexed": false,
          "internalType": "string",
          "name": "symbol",
          "type": "string"
        },
        {
          "indexed": false,
          "internalType": "string",
          "name": "name",
          "type": "string"
        }
      ],
      "name": "ReleaseCreated",
      "type": "event"
    },
    {
      "anonymous": false,
      "inputs": [
        {
          "indexed": true,
          "internalType": "uint256",
          "name": "newTokenId",
          "type": "uint256"
        },
        {
          "indexed": true,
          "internalType": "address",
          "name": "creator",
          "type": "address"
        },
        {
          "indexed": true,
          "internalType": "address",
          "name": "receiver",
          "type": "address"
        }
      ],
      "name": "ReleaseMinted",
      "type": "event"
    },
    {
      "anonymous": false,
      "inputs": [
        {
          "indexed": true,
          "internalType": "uint256",
          "name": "tokenId",
          "type": "uint256"
        },
        {
          "indexed": true,
          "internalType": "address",
          "name": "oldOwner",
          "type": "address"
        },
        {
          "indexed": true,
          "internalType": "address",
          "name": "newOwner",
          "type": "address"
        },
        {
          "indexed": false,
          "internalType": "uint256",
          "name": "salePrice",
          "type": "uint256"
        }
      ],
      "name": "ReleaseSold",
      "type": "event"
    },
    {
      "anonymous": false,
      "inputs": [
        {
          "indexed": true,
          "internalType": "address",
          "name": "receiver",
          "type": "address"
        },
        {
          "indexed": true,
          "internalType": "uint256",
          "name": "percentage",
          "type": "uint256"
        }
      ],
      "name": "RoyaltiesSet",
      "type": "event"
    },
    {
      "anonymous": false,
      "inputs": [
        {
          "indexed": true,
          "internalType": "uint256",
          "name": "tokenId",
          "type": "uint256"
        },
        {
          "indexed": false,
          "internalType": "uint256",
          "name": "salePrice",
          "type": "uint256"
        }
      ],
      "name": "SalePriceSet",
      "type": "event"
    },
    {
      "anonymous": false,
      "inputs": [
        {
          "indexed": true,
          "internalType": "address",
          "name": "from",
          "type": "address"
        },
        {
          "indexed": true,
          "internalType": "address",
          "name": "to",
          "type": "address"
        },
        {
          "indexed": true,
          "internalType": "uint256",
          "name": "tokenId",
          "type": "uint256"
        }
      ],
      "name": "Transfer",
      "type": "event"
    },
    {
      "anonymous": false,
      "inputs": [
        {
          "indexed": true,
          "internalType": "address",
          "name": "receiver",
          "type": "address"
        },
        {
          "indexed": true,
          "internalType": "address",
          "name": "tokenAddress",
          "type": "address"
        },
        {
          "indexed": false,
          "internalType": "uint256",
          "name": "amount",
          "type": "uint256"
        }
      ],
      "name": "WithdrawStuckERC20",
      "type": "event"
    },
    {
      "anonymous": false,
      "inputs": [
        {
          "indexed": true,
          "internalType": "address",
          "name": "receiver",
          "type": "address"
        },
        {
          "indexed": true,
          "internalType": "address",
          "name": "tokenAddress",
          "type": "address"
        },
        {
          "indexed": true,
          "internalType": "uint256",
          "name": "tokenId",
          "type": "uint256"
        }
      ],
      "name": "WithdrawStuckERC721",
      "type": "event"
    },
    {
      "anonymous": false,
      "inputs": [
        {
          "indexed": true,
          "internalType": "address",
          "name": "receiver",
          "type": "address"
        },
        {
          "indexed": false,
          "internalType": "uint256",
          "name": "amount",
          "type": "uint256"
        }
      ],
      "name": "WithdrawStuckEther",
      "type": "event"
    },
    {
      "inputs": [
        {
          "internalType": "address",
          "name": "to",
          "type": "address"
        },
        {
          "internalType": "uint256",
          "name": "tokenId",
          "type": "uint256"
        }
      ],
      "name": "approve",
      "outputs": [],
      "stateMutability": "nonpayable",
      "type": "function"
    },
    {
      "inputs": [
        {
          "internalType": "address",
          "name": "owner",
          "type": "address"
        }
      ],
      "name": "balanceOf",
      "outputs": [
        {
          "internalType": "uint256",
          "name": "",
          "type": "uint256"
        }
      ],
      "stateMutability": "view",
      "type": "function"
    },
    {
      "inputs": [
        {
          "internalType": "uint256",
          "name": "tokenId",
          "type": "uint256"
        }
      ],
      "name": "buyRelease",
      "outputs": [
        {
          "internalType": "bool",
          "name": "",
          "type": "bool"
        }
      ],
      "stateMutability": "payable",
      "type": "function"
    },
    {
      "inputs": [
        {
          "internalType": "uint256",
          "name": "tokenId",
          "type": "uint256"
        }
      ],
      "name": "creatorOf",
      "outputs": [
        {
          "internalType": "address",
          "name": "",
          "type": "address"
        }
      ],
      "stateMutability": "view",
      "type": "function"
    },
    {
      "inputs": [
        {
          "internalType": "uint256",
          "name": "tokenId",
          "type": "uint256"
        }
      ],
      "name": "getApproved",
      "outputs": [
        {
          "internalType": "address",
          "name": "",
          "type": "address"
        }
      ],
      "stateMutability": "view",
      "type": "function"
    },
    {
      "inputs": [
        {
          "internalType": "uint256",
          "name": "tokenId",
          "type": "uint256"
        }
      ],
      "name": "getTokenSalePrice",
      "outputs": [
        {
          "internalType": "uint256",
          "name": "",
          "type": "uint256"
        }
      ],
      "stateMutability": "view",
      "type": "function"
    },
    {
      "inputs": [
        {
          "internalType": "address",
          "name": "owner",
          "type": "address"
        },
        {
          "internalType": "address",
          "name": "operator",
          "type": "address"
        }
      ],
      "name": "isApprovedForAll",
      "outputs": [
        {
          "internalType": "bool",
          "name": "",
          "type": "bool"
        }
      ],
      "stateMutability": "view",
      "type": "function"
    },
    {
      "inputs": [],
      "name": "maxSupply",
      "outputs": [
        {
          "internalType": "uint256",
          "name": "",
          "type": "uint256"
        }
      ],
      "stateMutability": "view",
      "type": "function"
    },
    {
      "inputs": [],
      "name": "metadataURI",
      "outputs": [
        {
          "internalType": "string",
          "name": "",
          "type": "string"
        }
      ],
      "stateMutability": "view",
      "type": "function"
    },
    {
      "inputs": [
        {
          "internalType": "address",
          "name": "creator",
          "type": "address"
        },
        {
          "internalType": "address",
          "name": "receiver",
          "type": "address"
        }
      ],
      "name": "mintRelease",
      "outputs": [
        {
          "internalType": "uint256",
          "name": "newTokenId",
          "type": "uint256"
        }
      ],
      "stateMutability": "payable",
      "type": "function"
    },
    {
      "inputs": [],
      "name": "name",
      "outputs": [
        {
          "internalType": "string",
          "name": "",
          "type": "string"
        }
      ],
      "stateMutability": "view",
      "type": "function"
    },
    {
      "inputs": [],
      "name": "owner",
      "outputs": [
        {
          "internalType": "address",
          "name": "",
          "type": "address"
        }
      ],
      "stateMutability": "view",
      "type": "function"
    },
    {
      "inputs": [
        {
          "internalType": "uint256",
          "name": "tokenId",
          "type": "uint256"
        }
      ],
      "name": "ownerOf",
      "outputs": [
        {
          "internalType": "address",
          "name": "",
          "type": "address"
        }
      ],
      "stateMutability": "view",
      "type": "function"
    },
    {
      "inputs": [
        {
          "internalType": "uint256",
          "name": "index",
          "type": "uint256"
        }
      ],
      "name": "payee",
      "outputs": [
        {
          "internalType": "address",
          "name": "",
          "type": "address"
        }
      ],
      "stateMutability": "view",
      "type": "function"
    },
    {
      "inputs": [
        {
          "internalType": "address payable",
          "name": "account",
          "type": "address"
        }
      ],
      "name": "release",
      "outputs": [],
      "stateMutability": "nonpayable",
      "type": "function"
    },
    {
      "inputs": [
        {
          "internalType": "contract IERC20",
          "name": "token",
          "type": "address"
        },
        {
          "internalType": "address",
          "name": "account",
          "type": "address"
        }
      ],
      "name": "release",
      "outputs": [],
      "stateMutability": "nonpayable",
      "type": "function"
    },
    {
      "inputs": [],
      "name": "releaseSalePrice",
      "outputs": [
        {
          "internalType": "uint256",
          "name": "",
          "type": "uint256"
        }
      ],
      "stateMutability": "view",
      "type": "function"
    },
    {
      "inputs": [
        {
          "internalType": "contract IERC20",
          "name": "token",
          "type": "address"
        },
        {
          "internalType": "address",
          "name": "account",
          "type": "address"
        }
      ],
      "name": "released",
      "outputs": [
        {
          "internalType": "uint256",
          "name": "",
          "type": "uint256"
        }
      ],
      "stateMutability": "view",
      "type": "function"
    },
    {
      "inputs": [
        {
          "internalType": "address",
          "name": "account",
          "type": "address"
        }
      ],
      "name": "released",
      "outputs": [
        {
          "internalType": "uint256",
          "name": "",
          "type": "uint256"
        }
      ],
      "stateMutability": "view",
      "type": "function"
    },
    {
      "inputs": [],
      "name": "renounceOwnership",
      "outputs": [],
      "stateMutability": "nonpayable",
      "type": "function"
    },
    {
      "inputs": [
        {
          "internalType": "uint256",
          "name": "",
          "type": "uint256"
        },
        {
          "internalType": "uint256",
          "name": "value",
          "type": "uint256"
        }
      ],
      "name": "royaltyInfo",
      "outputs": [
        {
          "internalType": "address",
          "name": "receiver",
          "type": "address"
        },
        {
          "internalType": "uint256",
          "name": "royaltyAmount",
          "type": "uint256"
        }
      ],
      "stateMutability": "view",
      "type": "function"
    },
    {
      "inputs": [
        {
          "internalType": "address",
          "name": "from",
          "type": "address"
        },
        {
          "internalType": "address",
          "name": "to",
          "type": "address"
        },
        {
          "internalType": "uint256",
          "name": "tokenId",
          "type": "uint256"
        }
      ],
      "name": "safeTransferFrom",
      "outputs": [],
      "stateMutability": "nonpayable",
      "type": "function"
    },
    {
      "inputs": [
        {
          "internalType": "address",
          "name": "from",
          "type": "address"
        },
        {
          "internalType": "address",
          "name": "to",
          "type": "address"
        },
        {
          "internalType": "uint256",
          "name": "tokenId",
          "type": "uint256"
        },
        {
          "internalType": "bytes",
          "name": "_data",
          "type": "bytes"
        }
      ],
      "name": "safeTransferFrom",
      "outputs": [],
      "stateMutability": "nonpayable",
      "type": "function"
    },
    {
      "inputs": [
        {
          "internalType": "address",
          "name": "operator",
          "type": "address"
        },
        {
          "internalType": "bool",
          "name": "approved",
          "type": "bool"
        }
      ],
      "name": "setApprovalForAll",
      "outputs": [],
      "stateMutability": "nonpayable",
      "type": "function"
    },
    {
      "inputs": [
        {
          "internalType": "string",
          "name": "_metadataURI",
          "type": "string"
        }
      ],
      "name": "setMetadataURI",
      "outputs": [],
      "stateMutability": "nonpayable",
      "type": "function"
    },
    {
      "inputs": [
        {
          "internalType": "uint256",
          "name": "_salePrice",
          "type": "uint256"
        }
      ],
      "name": "setReleaseSalePrice",
      "outputs": [],
      "stateMutability": "nonpayable",
      "type": "function"
    },
    {
      "inputs": [
        {
          "internalType": "uint256",
          "name": "tokenId",
          "type": "uint256"
        },
        {
          "internalType": "uint256",
          "name": "_salePrice",
          "type": "uint256"
        }
      ],
      "name": "setTokenSalePrice",
      "outputs": [],
      "stateMutability": "nonpayable",
      "type": "function"
    },
    {
      "inputs": [
        {
          "internalType": "uint256",
          "name": "amount",
          "type": "uint256"
        }
      ],
      "name": "setTotalSupply",
      "outputs": [],
      "stateMutability": "nonpayable",
      "type": "function"
    },
    {
      "inputs": [
        {
          "internalType": "address",
          "name": "account",
          "type": "address"
        }
      ],
      "name": "shares",
      "outputs": [
        {
          "internalType": "uint256",
          "name": "",
          "type": "uint256"
        }
      ],
      "stateMutability": "view",
      "type": "function"
    },
    {
      "inputs": [
        {
          "internalType": "bytes4",
          "name": "interfaceId",
          "type": "bytes4"
        }
      ],
      "name": "supportsInterface",
      "outputs": [
        {
          "internalType": "bool",
          "name": "",
          "type": "bool"
        }
      ],
      "stateMutability": "view",
      "type": "function"
    },
    {
      "inputs": [],
      "name": "symbol",
      "outputs": [
        {
          "internalType": "string",
          "name": "",
          "type": "string"
        }
      ],
      "stateMutability": "view",
      "type": "function"
    },
    {
      "inputs": [
        {
          "internalType": "uint256",
          "name": "index",
          "type": "uint256"
        }
      ],
      "name": "tokenByIndex",
      "outputs": [
        {
          "internalType": "uint256",
          "name": "",
          "type": "uint256"
        }
      ],
      "stateMutability": "view",
      "type": "function"
    },
    {
      "inputs": [
        {
          "internalType": "address",
          "name": "owner",
          "type": "address"
        },
        {
          "internalType": "uint256",
          "name": "index",
          "type": "uint256"
        }
      ],
      "name": "tokenOfOwnerByIndex",
      "outputs": [
        {
          "internalType": "uint256",
          "name": "",
          "type": "uint256"
        }
      ],
      "stateMutability": "view",
      "type": "function"
    },
    {
      "inputs": [
        {
          "internalType": "uint256",
          "name": "tokenId",
          "type": "uint256"
        }
      ],
      "name": "tokenURI",
      "outputs": [
        {
          "internalType": "string",
          "name": "",
          "type": "string"
        }
      ],
      "stateMutability": "view",
      "type": "function"
    },
    {
      "inputs": [
        {
          "internalType": "contract IERC20",
          "name": "token",
          "type": "address"
        }
      ],
      "name": "totalReleased",
      "outputs": [
        {
          "internalType": "uint256",
          "name": "",
          "type": "uint256"
        }
      ],
      "stateMutability": "view",
      "type": "function"
    },
    {
      "inputs": [],
      "name": "totalReleased",
      "outputs": [
        {
          "internalType": "uint256",
          "name": "",
          "type": "uint256"
        }
      ],
      "stateMutability": "view",
      "type": "function"
    },
    {
      "inputs": [],
      "name": "totalShares",
      "outputs": [
        {
          "internalType": "uint256",
          "name": "",
          "type": "uint256"
        }
      ],
      "stateMutability": "view",
      "type": "function"
    },
    {
      "inputs": [],
      "name": "totalSupply",
      "outputs": [
        {
          "internalType": "uint256",
          "name": "",
          "type": "uint256"
        }
      ],
      "stateMutability": "view",
      "type": "function"
    },
    {
      "inputs": [
        {
          "internalType": "address",
          "name": "from",
          "type": "address"
        },
        {
          "internalType": "address",
          "name": "to",
          "type": "address"
        },
        {
          "internalType": "uint256",
          "name": "tokenId",
          "type": "uint256"
        }
      ],
      "name": "transferFrom",
      "outputs": [],
      "stateMutability": "nonpayable",
      "type": "function"
    },
    {
      "inputs": [
        {
          "internalType": "address",
          "name": "newOwner",
          "type": "address"
        }
      ],
      "name": "transferOwnership",
      "outputs": [],
      "stateMutability": "nonpayable",
      "type": "function"
    },
    {
      "inputs": [
        {
          "internalType": "address payable",
          "name": "receiver",
          "type": "address"
        },
        {
          "internalType": "address",
          "name": "tokenAddress",
          "type": "address"
        },
        {
          "internalType": "uint256",
          "name": "tokenId",
          "type": "uint256"
        }
      ],
      "name": "withdrawERC721",
      "outputs": [],
      "stateMutability": "nonpayable",
      "type": "function"
    },
    {
      "inputs": [
        {
          "internalType": "address payable",
          "name": "receiver",
          "type": "address"
        },
        {
          "internalType": "address",
          "name": "tokenAddress",
          "type": "address"
        },
        {
          "internalType": "uint256",
          "name": "amount",
          "type": "uint256"
        }
      ],
      "name": "withdrawErc20",
      "outputs": [],
      "stateMutability": "nonpayable",
      "type": "function"
    },
    {
      "inputs": [
        {
          "internalType": "address payable",
          "name": "receiver",
          "type": "address"
        },
        {
          "internalType": "uint256",
          "name": "amount",
          "type": "uint256"
        }
      ],
      "name": "withdrawEther",
      "outputs": [],
      "stateMutability": "nonpayable",
      "type": "function"
    },
    {
      "stateMutability": "payable",
      "type": "receive"
    }
  ],
  "bytecode": "0x60806040523480156200001157600080fd5b50604051620070ee380380620070ee83398181016040528101906200003791906200094f565b87878686816000908051906020019062000053929190620006bb565b5080600190805190602001906200006c929190620006bb565b5050506200008f62000083620002c660201b60201c565b620002ce60201b60201c565b8051825114620000d6576040517f08c379a0000000000000000000000000000000000000000000000000000000008152600401620000cd9062000c4d565b60405180910390fd5b60008251116200011d576040517f08c379a0000000000000000000000000000000000000000000000000000000008152600401620001149062000c91565b60405180910390fd5b60005b8251811015620001d457620001be83828151811062000168577f4e487b7100000000000000000000000000000000000000000000000000000000600052603260045260246000fd5b6020026020010151838381518110620001aa577f4e487b7100000000000000000000000000000000000000000000000000000000600052603260045260246000fd5b60200260200101516200039460201b60201c565b8080620001cb9062000f5d565b91505062000120565b505050856017819055508260188190555080601a9080519060200190620001fd929190620006bb565b5060008211156200025f576200021a3083620005ce60201b60201c565b813073ffffffffffffffffffffffffffffffffffffffff167f908669f35f6fb3977a956ba70597841fe541d1e8491ca3c025161e258d3bfdb660405160405180910390a35b813373ffffffffffffffffffffffffffffffffffffffff167f75255e35497428e58c467b1f1a8956c426a79178fb03ae552656dd51868ef4ec888487898b604051620002b095949392919062000cd5565b60405180910390a35050505050505050620011e5565b600033905090565b6000600c60009054906101000a900473ffffffffffffffffffffffffffffffffffffffff16905081600c60006101000a81548173ffffffffffffffffffffffffffffffffffffffff021916908373ffffffffffffffffffffffffffffffffffffffff1602179055508173ffffffffffffffffffffffffffffffffffffffff168173ffffffffffffffffffffffffffffffffffffffff167f8be0079c531659141344cd1fd0a4f28419497f9722a3daafe3b4186f6b6457e060405160405180910390a35050565b600073ffffffffffffffffffffffffffffffffffffffff168273ffffffffffffffffffffffffffffffffffffffff16141562000407576040517f08c379a0000000000000000000000000000000000000000000000000000000008152600401620003fe9062000c2b565b60405180910390fd5b600081116200044d576040517f08c379a0000000000000000000000000000000000000000000000000000000008152600401620004449062000cb3565b60405180910390fd5b6000600f60008473ffffffffffffffffffffffffffffffffffffffff1673ffffffffffffffffffffffffffffffffffffffff1681526020019081526020016000205414620004d2576040517f08c379a0000000000000000000000000000000000000000000000000000000008152600401620004c99062000c6f565b60405180910390fd5b6011829080600181540180825580915050600190039060005260206000200160009091909190916101000a81548173ffffffffffffffffffffffffffffffffffffffff021916908373ffffffffffffffffffffffffffffffffffffffff16021790555080600f60008473ffffffffffffffffffffffffffffffffffffffff1673ffffffffffffffffffffffffffffffffffffffff1681526020019081526020016000208190555080600d5462000589919062000e20565b600d819055507f40c340f65e17194d14ddddb073d3c9f888e3cb52b5aae0c6c7706b4fbc905fac8282604051620005c292919062000bdc565b60405180910390a15050565b61271081111562000616576040517f08c379a00000000000000000000000000000000000000000000000000000000081526004016200060d9062000c09565b60405180910390fd5b60405180604001604052808373ffffffffffffffffffffffffffffffffffffffff1681526020018262ffffff16815250600b60008201518160000160006101000a81548173ffffffffffffffffffffffffffffffffffffffff021916908373ffffffffffffffffffffffffffffffffffffffff16021790555060208201518160000160146101000a81548162ffffff021916908362ffffff1602179055509050505050565b828054620006c99062000ef1565b90600052602060002090601f016020900481019282620006ed576000855562000739565b82601f106200070857805160ff191683800117855562000739565b8280016001018555821562000739579182015b82811115620007385782518255916020019190600101906200071b565b5b5090506200074891906200074c565b5090565b5b80821115620007675760008160009055506001016200074d565b5090565b6000620007826200077c8462000d70565b62000d47565b90508083825260208201905082856020860282011115620007a257600080fd5b60005b85811015620007d65781620007bb88826200089a565b845260208401935060208301925050600181019050620007a5565b5050509392505050565b6000620007f7620007f18462000d9f565b62000d47565b905080838252602082019050828560208602820111156200081757600080fd5b60005b858110156200084b578162000830888262000938565b8452602084019350602083019250506001810190506200081a565b5050509392505050565b60006200086c620008668462000dce565b62000d47565b9050828152602081018484840111156200088557600080fd5b6200089284828562000ebb565b509392505050565b600081519050620008ab81620011b1565b92915050565b600082601f830112620008c357600080fd5b8151620008d58482602086016200076b565b91505092915050565b600082601f830112620008f057600080fd5b815162000902848260208601620007e0565b91505092915050565b600082601f8301126200091d57600080fd5b81516200092f84826020860162000855565b91505092915050565b6000815190506200094981620011cb565b92915050565b600080600080600080600080610100898b0312156200096d57600080fd5b600089015167ffffffffffffffff8111156200098857600080fd5b620009968b828c01620008b1565b985050602089015167ffffffffffffffff811115620009b457600080fd5b620009c28b828c01620008de565b9750506040620009d58b828c0162000938565b965050606089015167ffffffffffffffff811115620009f357600080fd5b62000a018b828c016200090b565b955050608089015167ffffffffffffffff81111562000a1f57600080fd5b62000a2d8b828c016200090b565b94505060a062000a408b828c0162000938565b93505060c062000a538b828c0162000938565b92505060e089015167ffffffffffffffff81111562000a7157600080fd5b62000a7f8b828c016200090b565b9150509295985092959890939650565b62000a9a8162000e7d565b82525050565b600062000aad8262000e04565b62000ab9818562000e0f565b935062000acb81856020860162000ebb565b62000ad68162001038565b840191505092915050565b600062000af0601a8362000e0f565b915062000afd8262001049565b602082019050919050565b600062000b17602c8362000e0f565b915062000b248262001072565b604082019050919050565b600062000b3e60328362000e0f565b915062000b4b82620010c1565b604082019050919050565b600062000b65602b8362000e0f565b915062000b728262001110565b604082019050919050565b600062000b8c601a8362000e0f565b915062000b99826200115f565b602082019050919050565b600062000bb3601d8362000e0f565b915062000bc08262001188565b602082019050919050565b62000bd68162000eb1565b82525050565b600060408201905062000bf3600083018562000a8f565b62000c02602083018462000bcb565b9392505050565b6000602082019050818103600083015262000c248162000ae1565b9050919050565b6000602082019050818103600083015262000c468162000b08565b9050919050565b6000602082019050818103600083015262000c688162000b2f565b9050919050565b6000602082019050818103600083015262000c8a8162000b56565b9050919050565b6000602082019050818103600083015262000cac8162000b7d565b9050919050565b6000602082019050818103600083015262000cce8162000ba4565b9050919050565b600060a08201905062000cec600083018862000bcb565b818103602083015262000d00818762000aa0565b905062000d11604083018662000bcb565b818103606083015262000d25818562000aa0565b9050818103608083015262000d3b818462000aa0565b90509695505050505050565b600062000d5362000d66565b905062000d61828262000f27565b919050565b6000604051905090565b600067ffffffffffffffff82111562000d8e5762000d8d62001009565b5b602082029050602081019050919050565b600067ffffffffffffffff82111562000dbd5762000dbc62001009565b5b602082029050602081019050919050565b600067ffffffffffffffff82111562000dec5762000deb62001009565b5b62000df78262001038565b9050602081019050919050565b600081519050919050565b600082825260208201905092915050565b600062000e2d8262000eb1565b915062000e3a8362000eb1565b9250827fffffffffffffffffffffffffffffffffffffffffffffffffffffffffffffffff0382111562000e725762000e7162000fab565b5b828201905092915050565b600062000e8a8262000e91565b9050919050565b600073ffffffffffffffffffffffffffffffffffffffff82169050919050565b6000819050919050565b60005b8381101562000edb57808201518184015260208101905062000ebe565b8381111562000eeb576000848401525b50505050565b6000600282049050600182168062000f0a57607f821691505b6020821081141562000f215762000f2062000fda565b5b50919050565b62000f328262001038565b810181811067ffffffffffffffff8211171562000f545762000f5362001009565b5b80604052505050565b600062000f6a8262000eb1565b91507fffffffffffffffffffffffffffffffffffffffffffffffffffffffffffffffff82141562000fa05762000f9f62000fab565b5b600182019050919050565b7f4e487b7100000000000000000000000000000000000000000000000000000000600052601160045260246000fd5b7f4e487b7100000000000000000000000000000000000000000000000000000000600052602260045260246000fd5b7f4e487b7100000000000000000000000000000000000000000000000000000000600052604160045260246000fd5b6000601f19601f8301169050919050565b7f45524332393831526f79616c746965733a20546f6f2068696768000000000000600082015250565b7f5061796d656e7453706c69747465723a206163636f756e74206973207468652060008201527f7a65726f20616464726573730000000000000000000000000000000000000000602082015250565b7f5061796d656e7453706c69747465723a2070617965657320616e64207368617260008201527f6573206c656e677468206d69736d617463680000000000000000000000000000602082015250565b7f5061796d656e7453706c69747465723a206163636f756e7420616c726561647960008201527f2068617320736861726573000000000000000000000000000000000000000000602082015250565b7f5061796d656e7453706c69747465723a206e6f20706179656573000000000000600082015250565b7f5061796d656e7453706c69747465723a20736861726573206172652030000000600082015250565b620011bc8162000e7d565b8114620011c857600080fd5b50565b620011d68162000eb1565b8114620011e257600080fd5b50565b615ef980620011f56000396000f3fe6080604052600436106102605760003560e01c8063589a174311610144578063a22cb465116100b6578063d79779b21161007a578063d79779b2146109bc578063e33b7de3146109f9578063e6c8e82b14610a24578063e985e9c514610a4f578063f2fde38b14610a8c578063f7ea7a3d14610ab5576102a7565b8063a22cb465146108c5578063b88d4fde146108ee578063c87b56dd14610917578063ce7c2ac214610954578063d5abeb0114610991576102a7565b8063750521f511610108578063750521f5146107a3578063814a76fe146107cc5780638b83209b146107f55780638da5cb5b1461083257806395d89b411461085d5780639852595c14610888576102a7565b8063589a1743146106a55780635b1716d6146106e25780636352211e1461071257806370a082311461074f578063715018a61461078c576102a7565b806323b872dd116101dd578063406072a9116101a1578063406072a91461058057806342842e0e146105bd57806348b75044146105e65780634f6ccce71461060f578063522f68151461064c5780635351c39414610675576102a7565b806323b872dd146104885780632a55205a146104b15780632f745c59146104ef5780633a98ef391461052c5780634025feb214610557576102a7565b80631593dee1116102245780631593dee1146103a557806318160ddd146103ce57806318eef395146103f9578063191655871461043657806319b105df1461045f576102a7565b806301ffc9a7146102ac57806303ee438c146102e957806306fdde0314610314578063081812fc1461033f578063095ea7b31461037c576102a7565b366102a7577f6ef95f06320e7a25a04a175ca677b7052bdd97131872c2192525a629f51be77061028e610ade565b3460405161029d929190614d43565b60405180910390a1005b600080fd5b3480156102b857600080fd5b506102d360048036038101906102ce9190614559565b610ae6565b6040516102e09190614d6c565b60405180910390f35b3480156102f557600080fd5b506102fe610af8565b60405161030b9190614db0565b60405180910390f35b34801561032057600080fd5b50610329610b86565b6040516103369190614db0565b60405180910390f35b34801561034b57600080fd5b5061036660048036038101906103619190614651565b610c18565b6040516103739190614c7c565b60405180910390f35b34801561038857600080fd5b506103a3600480360381019061039e91906144b8565b610c9d565b005b3480156103b157600080fd5b506103cc60048036038101906103c791906142eb565b610db5565b005b3480156103da57600080fd5b506103e3610e41565b6040516103f091906151d2565b60405180910390f35b34801561040557600080fd5b50610420600480360381019061041b9190614651565b610e4e565b60405161042d91906151d2565b60405180910390f35b34801561044257600080fd5b5061045d600480360381019061045891906142c2565b610e6b565b005b34801561046b57600080fd5b5061048660048036038101906104819190614651565b611016565b005b34801561049457600080fd5b506104af60048036038101906104aa91906143b2565b6110ec565b005b3480156104bd57600080fd5b506104d860048036038101906104d391906146a3565b61114c565b6040516104e6929190614d43565b60405180910390f35b3480156104fb57600080fd5b50610516600480360381019061051191906144b8565b61120c565b60405161052391906151d2565b60405180910390f35b34801561053857600080fd5b506105416112b1565b60405161054e91906151d2565b60405180910390f35b34801561056357600080fd5b5061057e600480360381019061057991906142eb565b6112bb565b005b34801561058c57600080fd5b506105a760048036038101906105a291906145d4565b611347565b6040516105b491906151d2565b60405180910390f35b3480156105c957600080fd5b506105e460048036038101906105df91906143b2565b6113ce565b005b3480156105f257600080fd5b5061060d600480360381019061060891906145d4565b6113ee565b005b34801561061b57600080fd5b5061063660048036038101906106319190614651565b6116b6565b60405161064391906151d2565b60405180910390f35b34801561065857600080fd5b50610673600480360381019061066e919061433a565b61174d565b005b61068f600480360381019061068a9190614376565b6117d7565b60405161069c91906151d2565b60405180910390f35b3480156106b157600080fd5b506106cc60048036038101906106c79190614651565b611830565b6040516106d99190614c7c565b60405180910390f35b6106fc60048036038101906106f79190614651565b61186d565b6040516107099190614d6c565b60405180910390f35b34801561071e57600080fd5b5061073960048036038101906107349190614651565b61187f565b6040516107469190614c7c565b60405180910390f35b34801561075b57600080fd5b5061077660048036038101906107719190614270565b611931565b60405161078391906151d2565b60405180910390f35b34801561079857600080fd5b506107a16119e9565b005b3480156107af57600080fd5b506107ca60048036038101906107c59190614610565b611a71565b005b3480156107d857600080fd5b506107f360048036038101906107ee91906146a3565b611b07565b005b34801561080157600080fd5b5061081c60048036038101906108179190614651565b611bb7565b6040516108299190614c7c565b60405180910390f35b34801561083e57600080fd5b50610847611c25565b6040516108549190614c7c565b60405180910390f35b34801561086957600080fd5b50610872611c4f565b60405161087f9190614db0565b60405180910390f35b34801561089457600080fd5b506108af60048036038101906108aa9190614270565b611ce1565b6040516108bc91906151d2565b60405180910390f35b3480156108d157600080fd5b506108ec60048036038101906108e7919061447c565b611d2a565b005b3480156108fa57600080fd5b5061091560048036038101906109109190614401565b611d40565b005b34801561092357600080fd5b5061093e60048036038101906109399190614651565b611da2565b60405161094b9190614db0565b60405180910390f35b34801561096057600080fd5b5061097b60048036038101906109769190614270565b611e7e565b60405161098891906151d2565b60405180910390f35b34801561099d57600080fd5b506109a6611ec7565b6040516109b391906151d2565b60405180910390f35b3480156109c857600080fd5b506109e360048036038101906109de91906145ab565b611ecd565b6040516109f091906151d2565b60405180910390f35b348015610a0557600080fd5b50610a0e611f16565b604051610a1b91906151d2565b60405180910390f35b348015610a3057600080fd5b50610a39611f20565b604051610a4691906151d2565b60405180910390f35b348015610a5b57600080fd5b50610a766004803603810190610a719190614376565b611f26565b604051610a839190614d6c565b60405180910390f35b348015610a9857600080fd5b50610ab36004803603810190610aae9190614270565b611fba565b005b348015610ac157600080fd5b50610adc6004803603810190610ad79190614651565b6120b2565b005b600033905090565b6000610af182612138565b9050919050565b601a8054610b05906154ee565b80601f0160208091040260200160405190810160405280929190818152602001828054610b31906154ee565b8015610b7e5780601f10610b5357610100808354040283529160200191610b7e565b820191906000526020600020905b815481529060010190602001808311610b6157829003601f168201915b505050505081565b606060008054610b95906154ee565b80601f0160208091040260200160405190810160405280929190818152602001828054610bc1906154ee565b8015610c0e5780601f10610be357610100808354040283529160200191610c0e565b820191906000526020600020905b815481529060010190602001808311610bf157829003601f168201915b5050505050905090565b6000610c23826121b2565b610c62576040517f08c379a0000000000000000000000000000000000000000000000000000000008152600401610c5990615012565b60405180910390fd5b6004600083815260200190815260200160002060009054906101000a900473ffffffffffffffffffffffffffffffffffffffff169050919050565b6000610ca88261187f565b90508073ffffffffffffffffffffffffffffffffffffffff168373ffffffffffffffffffffffffffffffffffffffff161415610d19576040517f08c379a0000000000000000000000000000000000000000000000000000000008152600401610d10906150d2565b60405180910390fd5b8073ffffffffffffffffffffffffffffffffffffffff16610d38610ade565b73ffffffffffffffffffffffffffffffffffffffff161480610d675750610d6681610d61610ade565b611f26565b5b610da6576040517f08c379a0000000000000000000000000000000000000000000000000000000008152600401610d9d90614f72565b60405180910390fd5b610db0838361221e565b505050565b610dbd610ade565b73ffffffffffffffffffffffffffffffffffffffff16610ddb611c25565b73ffffffffffffffffffffffffffffffffffffffff1614610e31576040517f08c379a0000000000000000000000000000000000000000000000000000000008152600401610e2890615032565b60405180910390fd5b610e3c8383836122d7565b505050565b6000600980549050905090565b600060166000838152602001908152602001600020549050919050565b6000600f60008373ffffffffffffffffffffffffffffffffffffffff1673ffffffffffffffffffffffffffffffffffffffff1681526020019081526020016000205411610eed576040517f08c379a0000000000000000000000000000000000000000000000000000000008152600401610ee490614e72565b60405180910390fd5b6000610ef7611f16565b47610f0291906152b7565b90506000610f198383610f1486611ce1565b61246c565b90506000811415610f5f576040517f08c379a0000000000000000000000000000000000000000000000000000000008152600401610f5690614f52565b60405180910390fd5b80601060008573ffffffffffffffffffffffffffffffffffffffff1673ffffffffffffffffffffffffffffffffffffffff1681526020019081526020016000206000828254610fae91906152b7565b9250508190555080600e6000828254610fc791906152b7565b92505081905550610fd883826124da565b7fdf20fd1e76bc69d672e4814fafb2c449bba3a5369d8359adf9e05e6fde87b0568382604051611009929190614c97565b60405180910390a1505050565b601960009054906101000a900460ff1615611066576040517f08c379a000000000000000000000000000000000000000000000000000000000815260040161105d906150b2565b60405180910390fd5b61106e610ade565b73ffffffffffffffffffffffffffffffffffffffff1661108c611c25565b73ffffffffffffffffffffffffffffffffffffffff16146110e2576040517f08c379a00000000000000000000000000000000000000000000000000000000081526004016110d990615032565b60405180910390fd5b8060178190555050565b6110fd6110f7610ade565b826125ce565b61113c576040517f08c379a0000000000000000000000000000000000000000000000000000000008152600401611133906150f2565b60405180910390fd5b6111478383836126ac565b505050565b6000806000600b6040518060400160405290816000820160009054906101000a900473ffffffffffffffffffffffffffffffffffffffff1673ffffffffffffffffffffffffffffffffffffffff1673ffffffffffffffffffffffffffffffffffffffff1681526020016000820160149054906101000a900462ffffff1662ffffff1662ffffff1681525050905080600001519250612710816020015162ffffff16856111f8919061533e565b611202919061530d565b9150509250929050565b600061121783611931565b8210611258576040517f08c379a000000000000000000000000000000000000000000000000000000000815260040161124f90614dd2565b60405180910390fd5b600760008473ffffffffffffffffffffffffffffffffffffffff1673ffffffffffffffffffffffffffffffffffffffff168152602001908152602001600020600083815260200190815260200160002054905092915050565b6000600d54905090565b6112c3610ade565b73ffffffffffffffffffffffffffffffffffffffff166112e1611c25565b73ffffffffffffffffffffffffffffffffffffffff1614611337576040517f08c379a000000000000000000000000000000000000000000000000000000000815260040161132e90615032565b60405180910390fd5b611342838383612908565b505050565b6000601360008473ffffffffffffffffffffffffffffffffffffffff1673ffffffffffffffffffffffffffffffffffffffff16815260200190815260200160002060008373ffffffffffffffffffffffffffffffffffffffff1673ffffffffffffffffffffffffffffffffffffffff16815260200190815260200160002054905092915050565b6113e983838360405180602001604052806000815250611d40565b505050565b6000600f60008373ffffffffffffffffffffffffffffffffffffffff1673ffffffffffffffffffffffffffffffffffffffff1681526020019081526020016000205411611470576040517f08c379a000000000000000000000000000000000000000000000000000000000815260040161146790614e72565b60405180910390fd5b600061147b83611ecd565b8373ffffffffffffffffffffffffffffffffffffffff166370a08231306040518263ffffffff1660e01b81526004016114b49190614c7c565b60206040518083038186803b1580156114cc57600080fd5b505afa1580156114e0573d6000803e3d6000fd5b505050506040513d601f19601f82011682018060405250810190611504919061467a565b61150e91906152b7565b9050600061152683836115218787611347565b61246c565b9050600081141561156c576040517f08c379a000000000000000000000000000000000000000000000000000000000815260040161156390614f52565b60405180910390fd5b80601360008673ffffffffffffffffffffffffffffffffffffffff1673ffffffffffffffffffffffffffffffffffffffff16815260200190815260200160002060008573ffffffffffffffffffffffffffffffffffffffff1673ffffffffffffffffffffffffffffffffffffffff16815260200190815260200160002060008282546115f891906152b7565b9250508190555080601260008673ffffffffffffffffffffffffffffffffffffffff1673ffffffffffffffffffffffffffffffffffffffff168152602001908152602001600020600082825461164e91906152b7565b92505081905550611660848483612b04565b8373ffffffffffffffffffffffffffffffffffffffff167f3be5b7a71e84ed12875d241991c70855ac5817d847039e17a9d895c1ceb0f18a84836040516116a8929190614d43565b60405180910390a250505050565b60006116c0610e41565b8210611701576040517f08c379a00000000000000000000000000000000000000000000000000000000081526004016116f890615132565b60405180910390fd5b6009828154811061173b577f4e487b7100000000000000000000000000000000000000000000000000000000600052603260045260246000fd5b90600052602060002001549050919050565b611755610ade565b73ffffffffffffffffffffffffffffffffffffffff16611773611c25565b73ffffffffffffffffffffffffffffffffffffffff16146117c9576040517f08c379a00000000000000000000000000000000000000000000000000000000081526004016117c090615032565b60405180910390fd5b6117d38282612b8a565b5050565b600060175434101561181e576040517f08c379a000000000000000000000000000000000000000000000000000000000815260040161181590615192565b60405180910390fd5b6118288383612c7c565b905092915050565b60006015600083815260200190815260200160002060009054906101000a900473ffffffffffffffffffffffffffffffffffffffff169050919050565b600061187882612df5565b9050919050565b6000806002600084815260200190815260200160002060009054906101000a900473ffffffffffffffffffffffffffffffffffffffff169050600073ffffffffffffffffffffffffffffffffffffffff168173ffffffffffffffffffffffffffffffffffffffff161415611928576040517f08c379a000000000000000000000000000000000000000000000000000000000815260040161191f90614fb2565b60405180910390fd5b80915050919050565b60008073ffffffffffffffffffffffffffffffffffffffff168273ffffffffffffffffffffffffffffffffffffffff1614156119a2576040517f08c379a000000000000000000000000000000000000000000000000000000000815260040161199990614f92565b60405180910390fd5b600360008373ffffffffffffffffffffffffffffffffffffffff1673ffffffffffffffffffffffffffffffffffffffff168152602001908152602001600020549050919050565b6119f1610ade565b73ffffffffffffffffffffffffffffffffffffffff16611a0f611c25565b73ffffffffffffffffffffffffffffffffffffffff1614611a65576040517f08c379a0000000000000000000000000000000000000000000000000000000008152600401611a5c90615032565b60405180910390fd5b611a6f600061302b565b565b611a79610ade565b73ffffffffffffffffffffffffffffffffffffffff16611a97611c25565b73ffffffffffffffffffffffffffffffffffffffff1614611aed576040517f08c379a0000000000000000000000000000000000000000000000000000000008152600401611ae490615032565b60405180910390fd5b80601a9080519060200190611b0392919061402b565b5050565b601960009054906101000a900460ff1615611b57576040517f08c379a0000000000000000000000000000000000000000000000000000000008152600401611b4e906150b2565b60405180910390fd5b81611b69611b63610ade565b826125ce565b611ba8576040517f08c379a0000000000000000000000000000000000000000000000000000000008152600401611b9f906151b2565b60405180910390fd5b611bb283836130f1565b505050565b600060118281548110611bf3577f4e487b7100000000000000000000000000000000000000000000000000000000600052603260045260246000fd5b9060005260206000200160009054906101000a900473ffffffffffffffffffffffffffffffffffffffff169050919050565b6000600c60009054906101000a900473ffffffffffffffffffffffffffffffffffffffff16905090565b606060018054611c5e906154ee565b80601f0160208091040260200160405190810160405280929190818152602001828054611c8a906154ee565b8015611cd75780601f10611cac57610100808354040283529160200191611cd7565b820191906000526020600020905b815481529060010190602001808311611cba57829003601f168201915b5050505050905090565b6000601060008373ffffffffffffffffffffffffffffffffffffffff1673ffffffffffffffffffffffffffffffffffffffff168152602001908152602001600020549050919050565b611d3c611d35610ade565b8383613145565b5050565b611d51611d4b610ade565b836125ce565b611d90576040517f08c379a0000000000000000000000000000000000000000000000000000000008152600401611d87906150f2565b60405180910390fd5b611d9c848484846132b2565b50505050565b6060611dad826121b2565b611dec576040517f08c379a0000000000000000000000000000000000000000000000000000000008152600401611de390615092565b60405180910390fd5b601a8054611df9906154ee565b80601f0160208091040260200160405190810160405280929190818152602001828054611e25906154ee565b8015611e725780601f10611e4757610100808354040283529160200191611e72565b820191906000526020600020905b815481529060010190602001808311611e5557829003601f168201915b50505050509050919050565b6000600f60008373ffffffffffffffffffffffffffffffffffffffff1673ffffffffffffffffffffffffffffffffffffffff168152602001908152602001600020549050919050565b60185481565b6000601260008373ffffffffffffffffffffffffffffffffffffffff1673ffffffffffffffffffffffffffffffffffffffff168152602001908152602001600020549050919050565b6000600e54905090565b60175481565b6000600560008473ffffffffffffffffffffffffffffffffffffffff1673ffffffffffffffffffffffffffffffffffffffff16815260200190815260200160002060008373ffffffffffffffffffffffffffffffffffffffff1673ffffffffffffffffffffffffffffffffffffffff16815260200190815260200160002060009054906101000a900460ff16905092915050565b611fc2610ade565b73ffffffffffffffffffffffffffffffffffffffff16611fe0611c25565b73ffffffffffffffffffffffffffffffffffffffff1614612036576040517f08c379a000000000000000000000000000000000000000000000000000000000815260040161202d90615032565b60405180910390fd5b600073ffffffffffffffffffffffffffffffffffffffff168173ffffffffffffffffffffffffffffffffffffffff1614156120a6576040517f08c379a000000000000000000000000000000000000000000000000000000000815260040161209d90614e12565b60405180910390fd5b6120af8161302b565b50565b6120ba610ade565b73ffffffffffffffffffffffffffffffffffffffff166120d8611c25565b73ffffffffffffffffffffffffffffffffffffffff161461212e576040517f08c379a000000000000000000000000000000000000000000000000000000000815260040161212590615032565b60405180910390fd5b8060188190555050565b60007f780e9d63000000000000000000000000000000000000000000000000000000007bffffffffffffffffffffffffffffffffffffffffffffffffffffffff1916827bffffffffffffffffffffffffffffffffffffffffffffffffffffffff191614806121ab57506121aa8261330e565b5b9050919050565b60008073ffffffffffffffffffffffffffffffffffffffff166002600084815260200190815260200160002060009054906101000a900473ffffffffffffffffffffffffffffffffffffffff1673ffffffffffffffffffffffffffffffffffffffff1614159050919050565b816004600083815260200190815260200160002060006101000a81548173ffffffffffffffffffffffffffffffffffffffff021916908373ffffffffffffffffffffffffffffffffffffffff160217905550808273ffffffffffffffffffffffffffffffffffffffff166122918361187f565b73ffffffffffffffffffffffffffffffffffffffff167f8c5be1e5ebec7d5bd14f71427d1e84f3dd0314c0f7b2291e5b200ac8c7c3b92560405160405180910390a45050565b600073ffffffffffffffffffffffffffffffffffffffff168373ffffffffffffffffffffffffffffffffffffffff161415612347576040517f08c379a000000000000000000000000000000000000000000000000000000000815260040161233e90614e32565b60405180910390fd5b808273ffffffffffffffffffffffffffffffffffffffff166370a08231306040518263ffffffff1660e01b81526004016123819190614c7c565b60206040518083038186803b15801561239957600080fd5b505afa1580156123ad573d6000803e3d6000fd5b505050506040513d601f19601f820116820180604052508101906123d1919061467a565b106124675761240183828473ffffffffffffffffffffffffffffffffffffffff16612b049092919063ffffffff16565b8173ffffffffffffffffffffffffffffffffffffffff168373ffffffffffffffffffffffffffffffffffffffff167f6c9d637297625e945b296ff73a71fcfbd0a9e062652b6491a921c4c60194176b8360405161245e91906151d2565b60405180910390a35b505050565b600081600d54600f60008773ffffffffffffffffffffffffffffffffffffffff1673ffffffffffffffffffffffffffffffffffffffff16815260200190815260200160002054856124bd919061533e565b6124c7919061530d565b6124d19190615398565b90509392505050565b8047101561251d576040517f08c379a000000000000000000000000000000000000000000000000000000000815260040161251490614ef2565b60405180910390fd5b60008273ffffffffffffffffffffffffffffffffffffffff168260405161254390614c67565b60006040518083038185875af1925050503d8060008114612580576040519150601f19603f3d011682016040523d82523d6000602084013e612585565b606091505b50509050806125c9576040517f08c379a00000000000000000000000000000000000000000000000000000000081526004016125c090614ed2565b60405180910390fd5b505050565b60006125d9826121b2565b612618576040517f08c379a000000000000000000000000000000000000000000000000000000000815260040161260f90614f32565b60405180910390fd5b60006126238361187f565b90508073ffffffffffffffffffffffffffffffffffffffff168473ffffffffffffffffffffffffffffffffffffffff16148061269257508373ffffffffffffffffffffffffffffffffffffffff1661267a84610c18565b73ffffffffffffffffffffffffffffffffffffffff16145b806126a357506126a28185611f26565b5b91505092915050565b8273ffffffffffffffffffffffffffffffffffffffff166126cc8261187f565b73ffffffffffffffffffffffffffffffffffffffff1614612722576040517f08c379a000000000000000000000000000000000000000000000000000000000815260040161271990615072565b60405180910390fd5b600073ffffffffffffffffffffffffffffffffffffffff168273ffffffffffffffffffffffffffffffffffffffff161415612792576040517f08c379a000000000000000000000000000000000000000000000000000000000815260040161278990614e92565b60405180910390fd5b61279d8383836133f0565b6127a860008261221e565b6001600360008573ffffffffffffffffffffffffffffffffffffffff1673ffffffffffffffffffffffffffffffffffffffff16815260200190815260200160002060008282546127f89190615398565b925050819055506001600360008473ffffffffffffffffffffffffffffffffffffffff1673ffffffffffffffffffffffffffffffffffffffff168152602001908152602001600020600082825461284f91906152b7565b92505081905550816002600083815260200190815260200160002060006101000a81548173ffffffffffffffffffffffffffffffffffffffff021916908373ffffffffffffffffffffffffffffffffffffffff160217905550808273ffffffffffffffffffffffffffffffffffffffff168473ffffffffffffffffffffffffffffffffffffffff167fddf252ad1be2c89b69c2b068fc378daa952ba7f163c4a11628f55a4df523b3ef60405160405180910390a4505050565b600073ffffffffffffffffffffffffffffffffffffffff168373ffffffffffffffffffffffffffffffffffffffff161415612978576040517f08c379a000000000000000000000000000000000000000000000000000000000815260040161296f90614e32565b60405180910390fd5b3073ffffffffffffffffffffffffffffffffffffffff168273ffffffffffffffffffffffffffffffffffffffff16636352211e836040518263ffffffff1660e01b81526004016129c891906151d2565b60206040518083038186803b1580156129e057600080fd5b505afa1580156129f4573d6000803e3d6000fd5b505050506040513d601f19601f82011682018060405250810190612a189190614299565b73ffffffffffffffffffffffffffffffffffffffff161415612aff578173ffffffffffffffffffffffffffffffffffffffff166323b872dd3085846040518463ffffffff1660e01b8152600401612a7193929190614cc0565b600060405180830381600087803b158015612a8b57600080fd5b505af1158015612a9f573d6000803e3d6000fd5b50505050808273ffffffffffffffffffffffffffffffffffffffff168473ffffffffffffffffffffffffffffffffffffffff167ffefe036cac4ee3a4aca074a81cbcc4376e1484693289078dbec149c890101d5b60405160405180910390a45b505050565b612b858363a9059cbb60e01b8484604051602401612b23929190614d43565b604051602081830303815290604052907bffffffffffffffffffffffffffffffffffffffffffffffffffffffff19166020820180517bffffffffffffffffffffffffffffffffffffffffffffffffffffffff8381831617835250505050613400565b505050565b600073ffffffffffffffffffffffffffffffffffffffff168273ffffffffffffffffffffffffffffffffffffffff161415612bfa576040517f08c379a0000000000000000000000000000000000000000000000000000000008152600401612bf190614e32565b60405180910390fd5b804710612c7857612c2a818373ffffffffffffffffffffffffffffffffffffffff166124da90919063ffffffff16565b8173ffffffffffffffffffffffffffffffffffffffff167eddb683bb45cd5d0ad8a200c6fae7152b1c236ee90a4a37db692407f5cc38bd82604051612c6f91906151d2565b60405180910390a25b5050565b6000612c8860146134c7565b612c9260146134dd565b9050612cae8282604051806020016040528060008152506134eb565b826015600083815260200190815260200160002060006101000a81548173ffffffffffffffffffffffffffffffffffffffff021916908373ffffffffffffffffffffffffffffffffffffffff160217905550612d9481601a8054612d11906154ee565b80601f0160208091040260200160405190810160405280929190818152602001828054612d3d906154ee565b8015612d8a5780601f10612d5f57610100808354040283529160200191612d8a565b820191906000526020600020905b815481529060010190602001808311612d6d57829003601f168201915b5050505050613546565b8173ffffffffffffffffffffffffffffffffffffffff168373ffffffffffffffffffffffffffffffffffffffff16827fcef33e76e5363819dd53070007eafcbff127b99f35a7777dd77c410326d5ae1c60405160405180910390a492915050565b6000806016600084815260200190815260200160002054905060008111612e51576040517f08c379a0000000000000000000000000000000000000000000000000000000008152600401612e4890615052565b60405180910390fd5b80341015612e94576040517f08c379a0000000000000000000000000000000000000000000000000000000008152600401612e8b90615172565b60405180910390fd5b6000612e9f8461187f565b90506000612eab610ade565b90506000803073ffffffffffffffffffffffffffffffffffffffff16632a55205a6000876040518363ffffffff1660e01b8152600401612eec929190614d87565b604080518083038186803b158015612f0357600080fd5b505afa158015612f17573d6000803e3d6000fd5b505050506040513d601f19601f82011682018060405250810190612f3b91906144f4565b91509150612f4a8484896126ac565b612f73818373ffffffffffffffffffffffffffffffffffffffff166124da90919063ffffffff16565b612fae612f8982876135ba90919063ffffffff16565b8573ffffffffffffffffffffffffffffffffffffffff166124da90919063ffffffff16565b8273ffffffffffffffffffffffffffffffffffffffff168473ffffffffffffffffffffffffffffffffffffffff16887ffcc4deb2872dfa661d24aee45c6a5a062d05ef0667c66f68f192be71d745d1838860405161300c91906151d2565b60405180910390a461301d856135d0565b600195505050505050919050565b6000600c60009054906101000a900473ffffffffffffffffffffffffffffffffffffffff16905081600c60006101000a81548173ffffffffffffffffffffffffffffffffffffffff021916908373ffffffffffffffffffffffffffffffffffffffff1602179055508173ffffffffffffffffffffffffffffffffffffffff168173ffffffffffffffffffffffffffffffffffffffff167f8be0079c531659141344cd1fd0a4f28419497f9722a3daafe3b4186f6b6457e060405160405180910390a35050565b806016600084815260200190815260200160002081905550817fe23ea816dce6d7f5c0b85cbd597e7c3b97b2453791152c0b94e5e5c5f314d2f08260405161313991906151d2565b60405180910390a25050565b8173ffffffffffffffffffffffffffffffffffffffff168373ffffffffffffffffffffffffffffffffffffffff1614156131b4576040517f08c379a00000000000000000000000000000000000000000000000000000000081526004016131ab90614eb2565b60405180910390fd5b80600560008573ffffffffffffffffffffffffffffffffffffffff1673ffffffffffffffffffffffffffffffffffffffff16815260200190815260200160002060008473ffffffffffffffffffffffffffffffffffffffff1673ffffffffffffffffffffffffffffffffffffffff16815260200190815260200160002060006101000a81548160ff0219169083151502179055508173ffffffffffffffffffffffffffffffffffffffff168373ffffffffffffffffffffffffffffffffffffffff167f17307eab39ab6107e8899845ad3d59bd9653f200f220920489ca2b5937696c31836040516132a59190614d6c565b60405180910390a3505050565b6132bd8484846126ac565b6132c984848484613625565b613308576040517f08c379a00000000000000000000000000000000000000000000000000000000081526004016132ff90614df2565b60405180910390fd5b50505050565b60007f80ac58cd000000000000000000000000000000000000000000000000000000007bffffffffffffffffffffffffffffffffffffffffffffffffffffffff1916827bffffffffffffffffffffffffffffffffffffffffffffffffffffffff191614806133d957507f5b5e139f000000000000000000000000000000000000000000000000000000007bffffffffffffffffffffffffffffffffffffffffffffffffffffffff1916827bffffffffffffffffffffffffffffffffffffffffffffffffffffffff1916145b806133e957506133e8826137bc565b5b9050919050565b6133fb838383613826565b505050565b6000613462826040518060400160405280602081526020017f5361666545524332303a206c6f772d6c6576656c2063616c6c206661696c65648152508573ffffffffffffffffffffffffffffffffffffffff1661393a9092919063ffffffff16565b90506000815111156134c257808060200190518101906134829190614530565b6134c1576040517f08c379a00000000000000000000000000000000000000000000000000000000081526004016134b890615152565b60405180910390fd5b5b505050565b6001816000016000828254019250508190555050565b600081600001549050919050565b6134f58383613952565b6135026000848484613625565b613541576040517f08c379a000000000000000000000000000000000000000000000000000000000815260040161353890614df2565b60405180910390fd5b505050565b61354f826121b2565b61358e576040517f08c379a000000000000000000000000000000000000000000000000000000000815260040161358590614fd2565b60405180910390fd5b806006600084815260200190815260200160002090805190602001906135b592919061402b565b505050565b600081836135c89190615398565b905092915050565b60006135e582346135ba90919063ffffffff16565b9050600081111561362157613620816135fc610ade565b73ffffffffffffffffffffffffffffffffffffffff166124da90919063ffffffff16565b5b5050565b60006136468473ffffffffffffffffffffffffffffffffffffffff16613b20565b156137af578373ffffffffffffffffffffffffffffffffffffffff1663150b7a0261366f610ade565b8786866040518563ffffffff1660e01b81526004016136919493929190614cf7565b602060405180830381600087803b1580156136ab57600080fd5b505af19250505080156136dc57506040513d601f19601f820116820180604052508101906136d99190614582565b60015b61375f573d806000811461370c576040519150601f19603f3d011682016040523d82523d6000602084013e613711565b606091505b50600081511415613757576040517f08c379a000000000000000000000000000000000000000000000000000000000815260040161374e90614df2565b60405180910390fd5b805181602001fd5b63150b7a0260e01b7bffffffffffffffffffffffffffffffffffffffffffffffffffffffff1916817bffffffffffffffffffffffffffffffffffffffffffffffffffffffff1916149150506137b4565b600190505b949350505050565b60007f01ffc9a7000000000000000000000000000000000000000000000000000000007bffffffffffffffffffffffffffffffffffffffffffffffffffffffff1916827bffffffffffffffffffffffffffffffffffffffffffffffffffffffff1916149050919050565b613831838383613b33565b600073ffffffffffffffffffffffffffffffffffffffff168373ffffffffffffffffffffffffffffffffffffffff1614156138745761386f81613b38565b6138b3565b8173ffffffffffffffffffffffffffffffffffffffff168373ffffffffffffffffffffffffffffffffffffffff16146138b2576138b18382613b81565b5b5b600073ffffffffffffffffffffffffffffffffffffffff168273ffffffffffffffffffffffffffffffffffffffff1614156138f6576138f181613cee565b613935565b8273ffffffffffffffffffffffffffffffffffffffff168273ffffffffffffffffffffffffffffffffffffffff1614613934576139338282613e31565b5b5b505050565b60606139498484600085613eb0565b90509392505050565b600073ffffffffffffffffffffffffffffffffffffffff168273ffffffffffffffffffffffffffffffffffffffff1614156139c2576040517f08c379a00000000000000000000000000000000000000000000000000000000081526004016139b990614ff2565b60405180910390fd5b6139cb816121b2565b15613a0b576040517f08c379a0000000000000000000000000000000000000000000000000000000008152600401613a0290614e52565b60405180910390fd5b613a17600083836133f0565b6001600360008473ffffffffffffffffffffffffffffffffffffffff1673ffffffffffffffffffffffffffffffffffffffff1681526020019081526020016000206000828254613a6791906152b7565b92505081905550816002600083815260200190815260200160002060006101000a81548173ffffffffffffffffffffffffffffffffffffffff021916908373ffffffffffffffffffffffffffffffffffffffff160217905550808273ffffffffffffffffffffffffffffffffffffffff16600073ffffffffffffffffffffffffffffffffffffffff167fddf252ad1be2c89b69c2b068fc378daa952ba7f163c4a11628f55a4df523b3ef60405160405180910390a45050565b600080823b905060008111915050919050565b505050565b600980549050600a600083815260200190815260200160002081905550600981908060018154018082558091505060019003906000526020600020016000909190919091505550565b60006001613b8e84611931565b613b989190615398565b9050600060086000848152602001908152602001600020549050818114613c7d576000600760008673ffffffffffffffffffffffffffffffffffffffff1673ffffffffffffffffffffffffffffffffffffffff168152602001908152602001600020600084815260200190815260200160002054905080600760008773ffffffffffffffffffffffffffffffffffffffff1673ffffffffffffffffffffffffffffffffffffffff168152602001908152602001600020600084815260200190815260200160002081905550816008600083815260200190815260200160002081905550505b6008600084815260200190815260200160002060009055600760008573ffffffffffffffffffffffffffffffffffffffff1673ffffffffffffffffffffffffffffffffffffffff16815260200190815260200160002060008381526020019081526020016000206000905550505050565b60006001600980549050613d029190615398565b90506000600a6000848152602001908152602001600020549050600060098381548110613d58577f4e487b7100000000000000000000000000000000000000000000000000000000600052603260045260246000fd5b906000526020600020015490508060098381548110613da0577f4e487b7100000000000000000000000000000000000000000000000000000000600052603260045260246000fd5b906000526020600020018190555081600a600083815260200190815260200160002081905550600a6000858152602001908152602001600020600090556009805480613e15577f4e487b7100000000000000000000000000000000000000000000000000000000600052603160045260246000fd5b6001900381819060005260206000200160009055905550505050565b6000613e3c83611931565b905081600760008573ffffffffffffffffffffffffffffffffffffffff1673ffffffffffffffffffffffffffffffffffffffff168152602001908152602001600020600083815260200190815260200160002081905550806008600084815260200190815260200160002081905550505050565b606082471015613ef5576040517f08c379a0000000000000000000000000000000000000000000000000000000008152600401613eec90614f12565b60405180910390fd5b613efe85613b20565b613f3d576040517f08c379a0000000000000000000000000000000000000000000000000000000008152600401613f3490615112565b60405180910390fd5b6000808673ffffffffffffffffffffffffffffffffffffffff168587604051613f669190614c50565b60006040518083038185875af1925050503d8060008114613fa3576040519150601f19603f3d011682016040523d82523d6000602084013e613fa8565b606091505b5091509150613fb8828286613fc4565b92505050949350505050565b60608315613fd457829050614024565b600083511115613fe75782518084602001fd5b816040517f08c379a000000000000000000000000000000000000000000000000000000000815260040161401b9190614db0565b60405180910390fd5b9392505050565b828054614037906154ee565b90600052602060002090601f01602090048101928261405957600085556140a0565b82601f1061407257805160ff19168380011785556140a0565b828001600101855582156140a0579182015b8281111561409f578251825591602001919060010190614084565b5b5090506140ad91906140b1565b5090565b5b808211156140ca5760008160009055506001016140b2565b5090565b60006140e16140dc84615212565b6151ed565b9050828152602081018484840111156140f957600080fd5b6141048482856154ac565b509392505050565b600061411f61411a84615243565b6151ed565b90508281526020810184848401111561413757600080fd5b6141428482856154ac565b509392505050565b60008135905061415981615e39565b92915050565b60008151905061416e81615e39565b92915050565b60008135905061418381615e50565b92915050565b60008135905061419881615e67565b92915050565b6000815190506141ad81615e67565b92915050565b6000813590506141c281615e7e565b92915050565b6000815190506141d781615e7e565b92915050565b600082601f8301126141ee57600080fd5b81356141fe8482602086016140ce565b91505092915050565b60008135905061421681615e95565b92915050565b600082601f83011261422d57600080fd5b813561423d84826020860161410c565b91505092915050565b60008135905061425581615eac565b92915050565b60008151905061426a81615eac565b92915050565b60006020828403121561428257600080fd5b60006142908482850161414a565b91505092915050565b6000602082840312156142ab57600080fd5b60006142b98482850161415f565b91505092915050565b6000602082840312156142d457600080fd5b60006142e284828501614174565b91505092915050565b60008060006060848603121561430057600080fd5b600061430e86828701614174565b935050602061431f8682870161414a565b925050604061433086828701614246565b9150509250925092565b6000806040838503121561434d57600080fd5b600061435b85828601614174565b925050602061436c85828601614246565b9150509250929050565b6000806040838503121561438957600080fd5b60006143978582860161414a565b92505060206143a88582860161414a565b9150509250929050565b6000806000606084860312156143c757600080fd5b60006143d58682870161414a565b93505060206143e68682870161414a565b92505060406143f786828701614246565b9150509250925092565b6000806000806080858703121561441757600080fd5b60006144258782880161414a565b94505060206144368782880161414a565b935050604061444787828801614246565b925050606085013567ffffffffffffffff81111561446457600080fd5b614470878288016141dd565b91505092959194509250565b6000806040838503121561448f57600080fd5b600061449d8582860161414a565b92505060206144ae85828601614189565b9150509250929050565b600080604083850312156144cb57600080fd5b60006144d98582860161414a565b92505060206144ea85828601614246565b9150509250929050565b6000806040838503121561450757600080fd5b60006145158582860161415f565b92505060206145268582860161425b565b9150509250929050565b60006020828403121561454257600080fd5b60006145508482850161419e565b91505092915050565b60006020828403121561456b57600080fd5b6000614579848285016141b3565b91505092915050565b60006020828403121561459457600080fd5b60006145a2848285016141c8565b91505092915050565b6000602082840312156145bd57600080fd5b60006145cb84828501614207565b91505092915050565b600080604083850312156145e757600080fd5b60006145f585828601614207565b92505060206146068582860161414a565b9150509250929050565b60006020828403121561462257600080fd5b600082013567ffffffffffffffff81111561463c57600080fd5b6146488482850161421c565b91505092915050565b60006020828403121561466357600080fd5b600061467184828501614246565b91505092915050565b60006020828403121561468c57600080fd5b600061469a8482850161425b565b91505092915050565b600080604083850312156146b657600080fd5b60006146c485828601614246565b92505060206146d585828601614246565b9150509250929050565b6146e881615464565b82525050565b6146f7816153cc565b82525050565b614706816153f0565b82525050565b600061471782615274565b614721818561528a565b93506147318185602086016154bb565b61473a8161560d565b840191505092915050565b600061475082615274565b61475a818561529b565b935061476a8185602086016154bb565b80840191505092915050565b61477f81615476565b82525050565b60006147908261527f565b61479a81856152a6565b93506147aa8185602086016154bb565b6147b38161560d565b840191505092915050565b60006147cb602b836152a6565b91506147d68261561e565b604082019050919050565b60006147ee6032836152a6565b91506147f98261566d565b604082019050919050565b60006148116026836152a6565b915061481c826156bc565b604082019050919050565b60006148346009836152a6565b915061483f8261570b565b602082019050919050565b6000614857601c836152a6565b915061486282615734565b602082019050919050565b600061487a6026836152a6565b91506148858261575d565b604082019050919050565b600061489d6024836152a6565b91506148a8826157ac565b604082019050919050565b60006148c06019836152a6565b91506148cb826157fb565b602082019050919050565b60006148e3603a836152a6565b91506148ee82615824565b604082019050919050565b6000614906601d836152a6565b915061491182615873565b602082019050919050565b60006149296026836152a6565b91506149348261589c565b604082019050919050565b600061494c602c836152a6565b9150614957826158eb565b604082019050919050565b600061496f602b836152a6565b915061497a8261593a565b604082019050919050565b60006149926038836152a6565b915061499d82615989565b604082019050919050565b60006149b5602a836152a6565b91506149c0826159d8565b604082019050919050565b60006149d86029836152a6565b91506149e382615a27565b604082019050919050565b60006149fb602e836152a6565b9150614a0682615a76565b604082019050919050565b6000614a1e6020836152a6565b9150614a2982615ac5565b602082019050919050565b6000614a41602c836152a6565b9150614a4c82615aee565b604082019050919050565b6000614a646020836152a6565b9150614a6f82615b3d565b602082019050919050565b6000614a876008836152a6565b9150614a9282615b66565b602082019050919050565b6000614aaa6029836152a6565b9150614ab582615b8f565b604082019050919050565b6000614acd602f836152a6565b9150614ad882615bde565b604082019050919050565b6000614af06008836152a6565b9150614afb82615c2d565b602082019050919050565b6000614b136021836152a6565b9150614b1e82615c56565b604082019050919050565b6000614b3660008361529b565b9150614b4182615ca5565b600082019050919050565b6000614b596031836152a6565b9150614b6482615ca8565b604082019050919050565b6000614b7c601d836152a6565b9150614b8782615cf7565b602082019050919050565b6000614b9f602c836152a6565b9150614baa82615d20565b604082019050919050565b6000614bc2602a836152a6565b9150614bcd82615d6f565b604082019050919050565b6000614be56008836152a6565b9150614bf082615dbe565b602082019050919050565b6000614c086008836152a6565b9150614c1382615de7565b602082019050919050565b6000614c2b6008836152a6565b9150614c3682615e10565b602082019050919050565b614c4a8161545a565b82525050565b6000614c5c8284614745565b915081905092915050565b6000614c7282614b29565b9150819050919050565b6000602082019050614c9160008301846146ee565b92915050565b6000604082019050614cac60008301856146df565b614cb96020830184614c41565b9392505050565b6000606082019050614cd560008301866146ee565b614ce260208301856146df565b614cef6040830184614c41565b949350505050565b6000608082019050614d0c60008301876146ee565b614d1960208301866146ee565b614d266040830185614c41565b8181036060830152614d38818461470c565b905095945050505050565b6000604082019050614d5860008301856146ee565b614d656020830184614c41565b9392505050565b6000602082019050614d8160008301846146fd565b92915050565b6000604082019050614d9c6000830185614776565b614da96020830184614c41565b9392505050565b60006020820190508181036000830152614dca8184614785565b905092915050565b60006020820190508181036000830152614deb816147be565b9050919050565b60006020820190508181036000830152614e0b816147e1565b9050919050565b60006020820190508181036000830152614e2b81614804565b9050919050565b60006020820190508181036000830152614e4b81614827565b9050919050565b60006020820190508181036000830152614e6b8161484a565b9050919050565b60006020820190508181036000830152614e8b8161486d565b9050919050565b60006020820190508181036000830152614eab81614890565b9050919050565b60006020820190508181036000830152614ecb816148b3565b9050919050565b60006020820190508181036000830152614eeb816148d6565b9050919050565b60006020820190508181036000830152614f0b816148f9565b9050919050565b60006020820190508181036000830152614f2b8161491c565b9050919050565b60006020820190508181036000830152614f4b8161493f565b9050919050565b60006020820190508181036000830152614f6b81614962565b9050919050565b60006020820190508181036000830152614f8b81614985565b9050919050565b60006020820190508181036000830152614fab816149a8565b9050919050565b60006020820190508181036000830152614fcb816149cb565b9050919050565b60006020820190508181036000830152614feb816149ee565b9050919050565b6000602082019050818103600083015261500b81614a11565b9050919050565b6000602082019050818103600083015261502b81614a34565b9050919050565b6000602082019050818103600083015261504b81614a57565b9050919050565b6000602082019050818103600083015261506b81614a7a565b9050919050565b6000602082019050818103600083015261508b81614a9d565b9050919050565b600060208201905081810360008301526150ab81614ac0565b9050919050565b600060208201905081810360008301526150cb81614ae3565b9050919050565b600060208201905081810360008301526150eb81614b06565b9050919050565b6000602082019050818103600083015261510b81614b4c565b9050919050565b6000602082019050818103600083015261512b81614b6f565b9050919050565b6000602082019050818103600083015261514b81614b92565b9050919050565b6000602082019050818103600083015261516b81614bb5565b9050919050565b6000602082019050818103600083015261518b81614bd8565b9050919050565b600060208201905081810360008301526151ab81614bfb565b9050919050565b600060208201905081810360008301526151cb81614c1e565b9050919050565b60006020820190506151e76000830184614c41565b92915050565b60006151f7615208565b90506152038282615520565b919050565b6000604051905090565b600067ffffffffffffffff82111561522d5761522c6155de565b5b6152368261560d565b9050602081019050919050565b600067ffffffffffffffff82111561525e5761525d6155de565b5b6152678261560d565b9050602081019050919050565b600081519050919050565b600081519050919050565b600082825260208201905092915050565b600081905092915050565b600082825260208201905092915050565b60006152c28261545a565b91506152cd8361545a565b9250827fffffffffffffffffffffffffffffffffffffffffffffffffffffffffffffffff0382111561530257615301615551565b5b828201905092915050565b60006153188261545a565b91506153238361545a565b92508261533357615332615580565b5b828204905092915050565b60006153498261545a565b91506153548361545a565b9250817fffffffffffffffffffffffffffffffffffffffffffffffffffffffffffffffff048311821515161561538d5761538c615551565b5b828202905092915050565b60006153a38261545a565b91506153ae8361545a565b9250828210156153c1576153c0615551565b5b828203905092915050565b60006153d78261543a565b9050919050565b60006153e98261543a565b9050919050565b60008115159050919050565b60007fffffffff0000000000000000000000000000000000000000000000000000000082169050919050565b6000615433826153cc565b9050919050565b600073ffffffffffffffffffffffffffffffffffffffff82169050919050565b6000819050919050565b600061546f82615488565b9050919050565b60006154818261545a565b9050919050565b60006154938261549a565b9050919050565b60006154a58261543a565b9050919050565b82818337600083830152505050565b60005b838110156154d95780820151818401526020810190506154be565b838111156154e8576000848401525b50505050565b6000600282049050600182168061550657607f821691505b6020821081141561551a576155196155af565b5b50919050565b6155298261560d565b810181811067ffffffffffffffff82111715615548576155476155de565b5b80604052505050565b7f4e487b7100000000000000000000000000000000000000000000000000000000600052601160045260246000fd5b7f4e487b7100000000000000000000000000000000000000000000000000000000600052601260045260246000fd5b7f4e487b7100000000000000000000000000000000000000000000000000000000600052602260045260246000fd5b7f4e487b7100000000000000000000000000000000000000000000000000000000600052604160045260246000fd5b6000601f19601f8301169050919050565b7f455243373231456e756d657261626c653a206f776e657220696e646578206f7560008201527f74206f6620626f756e6473000000000000000000000000000000000000000000602082015250565b7f4552433732313a207472616e7366657220746f206e6f6e20455243373231526560008201527f63656976657220696d706c656d656e7465720000000000000000000000000000602082015250565b7f4f776e61626c653a206e6577206f776e657220697320746865207a65726f206160008201527f6464726573730000000000000000000000000000000000000000000000000000602082015250565b7f4248503a452d3430330000000000000000000000000000000000000000000000600082015250565b7f4552433732313a20746f6b656e20616c7265616479206d696e74656400000000600082015250565b7f5061796d656e7453706c69747465723a206163636f756e7420686173206e6f2060008201527f7368617265730000000000000000000000000000000000000000000000000000602082015250565b7f4552433732313a207472616e7366657220746f20746865207a65726f2061646460008201527f7265737300000000000000000000000000000000000000000000000000000000602082015250565b7f4552433732313a20617070726f766520746f2063616c6c657200000000000000600082015250565b7f416464726573733a20756e61626c6520746f2073656e642076616c75652c207260008201527f6563697069656e74206d61792068617665207265766572746564000000000000602082015250565b7f416464726573733a20696e73756666696369656e742062616c616e6365000000600082015250565b7f416464726573733a20696e73756666696369656e742062616c616e636520666f60008201527f722063616c6c0000000000000000000000000000000000000000000000000000602082015250565b7f4552433732313a206f70657261746f7220717565727920666f72206e6f6e657860008201527f697374656e7420746f6b656e0000000000000000000000000000000000000000602082015250565b7f5061796d656e7453706c69747465723a206163636f756e74206973206e6f742060008201527f647565207061796d656e74000000000000000000000000000000000000000000602082015250565b7f4552433732313a20617070726f76652063616c6c6572206973206e6f74206f7760008201527f6e6572206e6f7220617070726f76656420666f7220616c6c0000000000000000602082015250565b7f4552433732313a2062616c616e636520717565727920666f7220746865207a6560008201527f726f206164647265737300000000000000000000000000000000000000000000602082015250565b7f4552433732313a206f776e657220717565727920666f72206e6f6e657869737460008201527f656e7420746f6b656e0000000000000000000000000000000000000000000000602082015250565b7f45524337323155524953746f726167653a2055524920736574206f66206e6f6e60008201527f6578697374656e7420746f6b656e000000000000000000000000000000000000602082015250565b7f4552433732313a206d696e7420746f20746865207a65726f2061646472657373600082015250565b7f4552433732313a20617070726f76656420717565727920666f72206e6f6e657860008201527f697374656e7420746f6b656e0000000000000000000000000000000000000000602082015250565b7f4f776e61626c653a2063616c6c6572206973206e6f7420746865206f776e6572600082015250565b7f574c3a452d303032000000000000000000000000000000000000000000000000600082015250565b7f4552433732313a207472616e73666572206f6620746f6b656e2074686174206960008201527f73206e6f74206f776e0000000000000000000000000000000000000000000000602082015250565b7f4552433732314d657461646174613a2055524920717565727920666f72206e6f60008201527f6e6578697374656e7420746f6b656e0000000000000000000000000000000000602082015250565b7f574c3a452d303034000000000000000000000000000000000000000000000000600082015250565b7f4552433732313a20617070726f76616c20746f2063757272656e74206f776e6560008201527f7200000000000000000000000000000000000000000000000000000000000000602082015250565b50565b7f4552433732313a207472616e736665722063616c6c6572206973206e6f74206f60008201527f776e6572206e6f7220617070726f766564000000000000000000000000000000602082015250565b7f416464726573733a2063616c6c20746f206e6f6e2d636f6e7472616374000000600082015250565b7f455243373231456e756d657261626c653a20676c6f62616c20696e646578206f60008201527f7574206f6620626f756e64730000000000000000000000000000000000000000602082015250565b7f5361666545524332303a204552433230206f7065726174696f6e20646964206e60008201527f6f74207375636365656400000000000000000000000000000000000000000000602082015250565b7f574c3a452d303033000000000000000000000000000000000000000000000000600082015250565b7f574c3a452d303031000000000000000000000000000000000000000000000000600082015250565b7f574c3a452d303035000000000000000000000000000000000000000000000000600082015250565b615e42816153cc565b8114615e4d57600080fd5b50565b615e59816153de565b8114615e6457600080fd5b50565b615e70816153f0565b8114615e7b57600080fd5b50565b615e87816153fc565b8114615e9257600080fd5b50565b615e9e81615428565b8114615ea957600080fd5b50565b615eb58161545a565b8114615ec057600080fd5b5056fea2646970667358221220b6dc95448b1f620a55f239e30a105b512e10c64352f7d98266abef87b9eaacb064736f6c63430008040033"
}